:020000040800F2
:1000000000000220B52C0008952B0008972B000853
:10001000992B00089B2B00089D2B00080000000076
:1000200000000000000000000000000041A50008E2
:100030009F2B000800000000D1A50008C78500081C
:10004000052D0008052D0008052D0008052D0008C8
:10005000052D0008052D0008052D0008052D0008B8
:10006000052D0008052D0008052D0008052D0008A8
:10007000A12B0008052D0008052D0008AD2B000858
:10008000052D0008052D0008B92B0008052D0008D6
:10009000052D0008052D0008052D0008052D000878
:1000A000052D0008052D0008052D0008052D000868
:1000B000052D0008052D0008052D0008052D000858
:1000C000052D0008052D0008052D0008052D000848
:1000D000052D0008052D0008052D0008C52B00087A
:1000E000052D0008052D0008052D0008052D000828
:1000F000052D0008052D0008052D0008052D000818
:10010000052D0008052D0008052D0008052D000807
:10011000052D0008052D0008D12B0008052D00082D
:10012000DD2B0008052D0008E92B0008F52B000841
:10013000052D0008052D0008052D0008052D0008D7
:10014000052D0008052D0008052D0008012C0008CC
:10015000052D0008052D0008052D0008052D0008B7
:10016000052D0008052D0008052D0008052D0008A7
:10017000052D0008052D0008052D000800000000D1
:08018000052D0008052D000803
:1001900010B5054C237833B9044B13B10448AFF3C1
:1001A00000800123237010BDD00200200000000059
:1001B00054FD000808B5034B1BB103490348AFF3D6
:1001C000008008BD00000000D402002054FD00089B
:1001D000034613F8012B002AFBD1181A0138704787
:1001E00001F0FF01102A2BDB10F0070F08D010F8E8
:1001F000013B013A8B422DD010F0070F42B3F6D1EC
:10020000F0B441EA012141EA014122F007047FF004
:1002100000070023F0E80256083C85EA010586EA5B
:10022000010685FA47F5A3FA87F586FA47F6A5FA97
:1002300087F68EB9EED1F0BC01F0FF0102F00702A3
:1002400032B110F8013B013A83EA010313B1F8D14E
:100250000020704701387047002D06BF354603382F
:10026000073815F0010F07D1013015F4807F02BF68
:10027000013015F4C03F0130F0BC0138704700BFB9
:1002800081F0004102E000BF83F0004330B54FEA47
:1002900041044FEA430594EA050F08BF90EA020FB4
:1002A0001FBF54EA000C55EA020C7FEA645C7FEA47
:1002B000655C00F0E2804FEA5454D4EB5555B8BF6A
:1002C0006D420CDD2C4480EA020281EA030382EADB
:1002D000000083EA010180EA020281EA0303362D6D
:1002E00088BF30BD11F0004F4FEA01314FF4801C40
:1002F0004CEA113102D0404261EB410113F0004F52
:100300004FEA03334CEA133302D0524263EB430308
:1003100094EA050F00F0A780A4F10104D5F1200EA6
:100320000DDB02FA0EFC22FA05F2801841F1000101
:1003300003FA0EF2801843FA05F359410EE0A5F1D5
:1003400020050EF1200E012A03FA0EFC28BF4CF006
:10035000020C43FA05F3C01851EBE37101F00045BC
:1003600007D54FF0000EDCF1000C7EEB00006EEBC9
:100370000101B1F5801F1BD3B1F5001F0CD3490853
:100380005FEA30004FEA3C0C04F101044FEA4452AA
:1003900012F5800F80F09A80BCF1004F08BF5FEA31
:1003A000500C50F1000041EB045141EA050130BD11
:1003B0005FEA4C0C404141EB0101013C28BFB1F523
:1003C000801FE9D291F0000F04BF01460020B1FA6E
:1003D00081F308BF2033A3F10B03B3F120020CDA41
:1003E0000C3208DD02F1140CC2F10C0201FA0CF01F
:1003F00021FA02F10CE002F11402D8BFC2F1200C84
:1004000001FA02F120FA0CFCDCBF41EA0C01904039
:10041000E41AA2BF01EB0451294330BD6FEA040482
:100420001F3C1CDA0C340EDC04F11404C4F120026D
:1004300020FA04F001FA02F340EA030021FA04F37F
:1004400045EA030130BDC4F10C04C4F1200220FAD6
:1004500002F001FA04F340EA0300294630BD21FA14
:1004600004F0294630BD94F0000F83F4801306BFDA
:1004700081F480110134013D4EE77FEA645C18BFCE
:100480007FEA655C29D094EA050F08BF90EA020F65
:1004900005D054EA000C04BF1946104630BD91EA5D
:1004A000030F1EBF0021002030BD5FEA545C05D160
:1004B0004000494128BF41F0004130BD14F580049F
:1004C0003CBF01F5801130BD01F0004545F0FE4113
:1004D00041F470014FF0000030BD7FEA645C1ABF48
:1004E000194610467FEA655C1CBF0B46024650EA7F
:1004F000013406BF52EA033591EA030F41F40021AB
:1005000030BD00BF90F0000F04BF0021704730B530
:100510004FF4806404F132044FF000054FF0000105
:1005200050E700BF90F0000F04BF0021704730B5C6
:100530004FF4806404F1320410F0004548BF40429B
:100540004FF000013EE700BF42004FEAE2014FEAF0
:1005500031014FEA02701FBF12F07F4393F07F4FCB
:1005600081F06051704732F07F4208BF704793F0CE
:100570007F4F04BF41F40021704730B54FF46074E1
:1005800001F0004521F000411CE700BF50EA0102E4
:1005900008BF704730B54FF000050AE050EA01028D
:1005A00008BF704730B511F0004502D5404261EBFD
:1005B00041014FF4806404F132045FEA915C3FF43E
:1005C000D8AE4FF003025FEADC0C18BF03325FEADB
:1005D000DC0C18BF033202EBDC02C2F1200300FA8C
:1005E00003FC20FA02F001FA03FE40EA0E0021FAB1
:1005F00002F11444BDE600BF70B54FF0FF0C4CF49F
:10060000E06C1CEA11541DBF1CEA135594EA0C0F50
:1006100095EA0C0F00F0DEF82C4481EA030621EA8B
:100620004C5123EA4C5350EA013518BF52EA0335C6
:1006300041F4801143F4801338D0A0FB02CE4FF078
:100640000005E1FB02E506F00042E0FB03E54FF0A8
:100650000006E1FB03569CF0000F18BF4EF0010EA0
:10066000A4F1FF04B6F5007F64F5407404D25FEA9C
:100670004E0E6D4146EB060642EAC62141EA55514F
:100680004FEAC52040EA5E504FEACE2EB4F1FD0C91
:1006900088BFBCF5E06F1ED8BEF1004F08BF5FEA0F
:1006A000500E50F1000041EB045170BD06F00046C1
:1006B00046EA010140EA020081EA0301B4EB5C046E
:1006C000C2BFD4EB0C0541EA045170BD41F4801166
:1006D0004FF0000E013C00F3AB8014F1360FDEBF8B
:1006E000002001F0004170BDC4F10004203C35DA67
:1006F0000C341BDC04F11404C4F1200500FA05F3EA
:1007000020FA04F001FA05F240EA020001F000428A
:1007100021F0004110EBD37021FA04F642EB060100
:100720005EEA430E08BF20EAD37070BDC4F10C042A
:10073000C4F1200500FA04F320FA05F001FA04F2EE
:1007400040EA020001F0004110EBD37041F10001DA
:100750005EEA430E08BF20EAD37070BDC4F12005E5
:1007600000FA05F24EEA020E20FA04F301FA05F24D
:1007700043EA020321FA04F001F0004121FA04F2F5
:1007800020EA020000EBD3705EEA430E08BF20EAC5
:10079000D37070BD94F0000F0FD101F000464000FF
:1007A00041EB010111F4801F08BF013CF7D041EA81
:1007B000060195F0000F18BF704703F00046520085
:1007C00043EB030313F4801F08BF013DF7D043EA56
:1007D0000603704794EA0C0F0CEA135518BF95EA0C
:1007E0000C0F0CD050EA410618BF52EA4306D1D193
:1007F00081EA030101F000414FF0000070BD50EAB2
:10080000410606BF1046194652EA430619D094EA3B
:100810000C0F02D150EA013613D195EA0C0F05D125
:1008200052EA03361CBF104619460AD181EA030179
:1008300001F0004141F0FE4141F470014FF0000031
:1008400070BD41F0FE4141F4780170BD70B54FF0CC
:10085000FF0C4CF4E06C1CEA11541DBF1CEA13554C
:1008600094EA0C0F95EA0C0F00F0A7F8A4EB05042E
:1008700081EA030E52EA03354FEA013100F0888025
:100880004FEA03334FF0805545EA131343EA1263EE
:100890004FEA022245EA111545EA10654FEA0026A3
:1008A0000EF000419D4208BF964244F1FD0404F55C
:1008B000407402D25B084FEA3202B61A65EB0305B8
:1008C0005B084FEA32024FF480104FF4002CB6EB75
:1008D000020E75EB030E22BFB61A754640EA0C00F5
:1008E0005B084FEA3202B6EB020E75EB030E22BF35
:1008F000B61A754640EA5C005B084FEA3202B6EB76
:10090000020E75EB030E22BFB61A754640EA9C0034
:100910005B084FEA3202B6EB020E75EB030E22BF04
:10092000B61A754640EADC0055EA060E18D04FEAC2
:10093000051545EA16754FEA06164FEAC30343EA62
:1009400052734FEAC2025FEA1C1CC0D111F4801F2F
:100950000BD141EA00014FF000004FF0004CB6E728
:1009600011F4801F04BF01430020B4F1FD0C88BFC7
:10097000BCF5E06F3FF6AFAEB5EB030C04BFB6EBD2
:10098000020C5FEA500C50F1000041EB045170BDC5
:100990000EF0004E4EEA113114EB5C04C2BFD4EBF2
:1009A0000C0541EA045170BD41F480114FF0000E76
:1009B000013C90E645EA060E8DE60CEA135594EAF2
:1009C0000C0F08BF95EA0C0F3FF43BAF94EA0C0FF5
:1009D0000AD150EA01347FF434AF95EA0C0F7FF46A
:1009E00025AF104619462CE795EA0C0F06D152EABE
:1009F00003353FF4FDAE1046194622E750EA4106A2
:100A000018BF52EA43067FF4C5AE50EA41047FF4B2
:100A10000DAF52EA43057FF4EBAE12E74FF0FF3C17
:100A200006E000BF4FF0010C02E000BF4FF0010CE8
:100A30004DF804CD4FEA410C7FEA6C5C4FEA430C61
:100A400018BF7FEA6C5C1BD001B050EA410C0CBFB0
:100A500052EA430C91EA030F02BF90EA020F002012
:100A6000704710F1000F91EA030F58BF994208BF79
:100A700090422CBFD8176FEAE37040F00100704736
:100A80004FEA410C7FEA6C5C02D150EA013C07D18D
:100A90004FEA430C7FEA6C5CD6D152EA033CD3D0D8
:100AA0005DF8040B704700BF8446104662468C46D2
:100AB0001946634600E000BF01B5FFF7B7FF002805
:100AC00048BF10F1000F01BD4DF808EDFFF7F4FF2E
:100AD0000CBF012000205DF808FB00BF4DF808EDB9
:100AE000FFF7EAFF34BF012000205DF808FB00BFDC
:100AF0004DF808EDFFF7E0FF94BF012000205DF8FE
:100B000008FB00BF4DF808EDFFF7CEFF94BF0120B2
:100B100000205DF808FB00BF4DF808EDFFF7C4FFAB
:100B200034BF012000205DF808FB00BF4FEA410CF4
:100B30007FEA6C5C02D150EA013C0AD14FEA430CD7
:100B40007FEA6C5C02D152EA033C02D14FF0000014
:100B500070474FF0010070474FEA410212F5001252
:100B600015D211D56FF47873B3EB625212D94FEAF4
:100B7000C12343F0004343EA505311F0004F23FADE
:100B800002F018BF404270474FF00000704750EA33
:100B9000013005D111F0004008BF6FF000407047F0
:100BA0004FF00000704700BF4A0011D212F500124A
:100BB00011D20DD56FF47873B3EB62520ED44FEAB5
:100BC000C12343F0004343EA505323FA02F0704735
:100BD0004FF00000704750EA013002D14FF0FF3073
:100BE00070474FF0000070474FEA4102B2F1E04316
:100BF00024BFB3F5001CDCF1FE5C0DD901F0004C04
:100C00004FEAC0024CEA5070B2F1004F40EB830053
:100C100008BF20F00100704711F0804F21D113F17F
:100C20003872BCBF01F00040704741F480114FEAB8
:100C30005252C2F11802C2F1200C10FA0CF320FA41
:100C400002F018BF40F001004FEAC1234FEAD3235E
:100C500003FA0CFC40EA0C0023FA02F34FEA4303C8
:100C6000CCE77FEA625307D150EA01331EBF4FF051
:100C7000FE4040F44000704701F0004040F0FE406C
:100C800040F40000704700BF53B94AB9002908BFBB
:100C900000281CBF4FF0FF314FF0FF3000F0AAB921
:100CA000ADF1080C6DE904CE00F03CF8DDF804E08D
:100CB000DDE9022304B0704738B500220023044662
:100CC0000D46FFF70BFF28B920462946BDE83840FE
:100CD00000F00AB8204605F1004100F005F8404256
:100CE00061EB410138BD00BFD0B50C4B0022064678
:100CF0000F46FFF781FCFFF757FF0446FFF702FCA2
:100D0000074B0022FFF778FC02460B463046394677
:100D1000FFF7BAFAFFF748FF2146D0BD0000F03DCB
:100D20000000F0412DE9F047089D04468E46002B57
:100D30004DD18A42944669D9B2FA82F252B101FA8F
:100D400002F3C2F1200120FA01F10CFA02FC41EA9F
:100D5000030E94404FEA1C48210CBEFBF8F61FFA24
:100D60008CF708FB16E341EA034306FB07F19942BF
:100D70000AD91CEB030306F1FF3080F01F81994272
:100D800040F21C81023E63445B1AA4B2B3FBF8F04C
:100D900008FB103344EA034400FB07F7A7420AD9D3
:100DA0001CEB040400F1FF3380F00A81A74240F2FB
:100DB00007816444023840EA0640E41B00261DB166
:100DC000D4400023C5E900433146BDE8F0878B429B
:100DD00009D9002D00F0EF800026C5E9000130465A
:100DE0003146BDE8F087B3FA83F6002E4AD18B4234
:100DF00002D3824200F2F980841A61EB03030120DE
:100E00009E46002DE0D0C5E9004EDDE702B9FFDEC9
:100E1000B2FA82F2002A40F09280A1EB0C014FEA74
:100E20001C471FFA8CFE0126200CB1FBF7F307FBD1
:100E3000131140EA01410EFB03F0884208D91CEB74
:100E4000010103F1FF3802D2884200F2CB80434611
:100E5000091AA4B2B1FBF7F007FB101144EA0144F0
:100E60000EFB00FEA64508D91CEB040400F1FF317F
:100E700002D2A64500F2BB800846A4EB0E0440EA6D
:100E800003409CE7C6F12007B34022FA07FC4CEA76
:100E9000030C20FA07F401FA06F31C43F9404FEA69
:100EA0001C4900FA06F3B1FBF9F8200C1FFA8CFE7E
:100EB00009FB181140EA014108FB0EF0884202FAD2
:100EC00006F20BD91CEB010108F1FF3A80F0888093
:100ED000884240F28580A8F102086144091AA4B250
:100EE000B1FBF9F009FB101144EA014100FB0EFED1
:100EF0008E4508D91CEB010100F1FF346CD28E4500
:100F00006AD90238614440EA0840A0FB0294A1EB90
:100F10000E01A142C846A64656D353D05DB1B3EBED
:100F2000080261EB0E0101FA07F722FA06F3F1401D
:100F30001F43C5E9007100263146BDE8F087C2F1C4
:100F40002003D8400CFA02FC21FA03F3914001433C
:100F50004FEA1C471FFA8CFEB3FBF7F007FB103675
:100F60000B0C43EA064300FB0EF69E4204FA02F421
:100F700008D91CEB030300F1FF382FD29E422DD974
:100F8000023863449B1B89B2B3FBF7F607FB1633A9
:100F900041EA034106FB0EF38B4208D91CEB010129
:100FA00006F1FF3816D28B4214D9023E6144C91AA9
:100FB00046EA004638E72E46284605E70646E3E6B9
:100FC0001846F8E64B45A9D2B9EB020864EB0C0EC3
:100FD0000138A3E74646EAE7204694E74046D1E7D2
:100FE000D0467BE7023B614432E7304609E7644480
:100FF000023842E7704700BF30B5134A85B0117818
:10100000124A0023039399420FDD52F8044B65689E
:1010100085420CD103AB009300231A461946D4F83D
:10102000AC0008F07DFF039B1BB905B030BD013358
:10103000E9E74FF0E0234FF08052C3F8042DBFF3EF
:101040004F8FBFF36F8FF0E7B4130020AC13002075
:101050007FB51F4B1F4A1978002403941546A142FF
:1010600026DD52F8043B5E68864223D193F8406146
:10107000012E1DD193F8A61003F1BC0005F074FEFB
:1010800055F82430324603F1A601586804F0BBFE3F
:1010900055F82430D3F8B04008F06EFB0023024628
:1010A0000093072103AB204609F08AF8039B1BB984
:1010B00004B070BD0134D2E74FF0E0234FF080520E
:1010C000C3F8042DBFF34F8FBFF36F8FF0E700BF5E
:1010D000B4130020AC13002070B5144B1978144BD6
:1010E00000241D46A1421ADD53F8042B566886429F
:1010F0001AD192F84031042B11D155F824308022B6
:10110000586803F1BC0104F0E5FE55F8243038B905
:101110005B689B6B1A68136823F00803136070BD4B
:10112000586804F015FBE8E70134DBE7B41300204E
:10113000AC130020F0B5254B254A1E7885B000245D
:1011400003941546A6422BDD52F8043B5F688742A4
:101150002ED193F84021042A22D109B3002283F82A
:101160003E1183F83F2155F824308022586803F15E
:10117000BC0104F0AFFEA8B955F8244063689B6B2E
:101180001A68136823F00803136003AB0093014649
:1011900003460322D4F8AC0008F0C2FE039B4BB90F
:1011A00005B0F0BD55F82430586804F0D1FADAE7FC
:1011B0000134C7E74FF0E0234FF08052C3F8042D0D
:1011C000BFF34F8FBFF36F8FEAE700BFB413002068
:1011D000AC13002010B50846144691B209F062FC29
:1011E000204610BD0268124B9A4210B51AD111491F
:1011F0000B68312B17DC104A1048148820F8134074
:101200000F48548820F813400E48948820F8134063
:101210000D48D48820F8134010890C4A22F8130096
:1012200001330B6010BD0A4B01221A60FAE700BFC0
:1012300000200140F0030020E60300200807002002
:10124000FC080020F00A0020740F00206811002024
:10125000F80300200268034B9A4201D101F06EBDF1
:10126000704700BF0010004008B572B6024C20461F
:1012700001F088FAFBE700BF70FD00080A480B4A3E
:1012800008B54FF46143C0E9002300230C22C0E9F4
:101290000233C0E905230361C36104F0C9F908B151
:1012A000FFF7E2FF08BD00BFC40600200048004071
:1012B0002DE9F04F93B0FFF7E1FF4F48DFF878A139
:1012C0000122102102F02CFB01224FF400614B4857
:1012D00002F026FB4A4805F00AFC4948022105F0C5
:1012E00049FC4748012105F069FC002344481A469F
:1012F000194605F0CBFC434809F00AFF4FF0FF31D7
:10130000DAF8B800404D07F036FA3E4809F0D6FD4D
:1013100011AB3B4810AA0FA910EE10BA05F09CFCC7
:101320002B68F3B139493A483A4E384F0BF084FEF6
:10133000044684B120460AF012F851EC100BFFF776
:1013400053FCC0F30F4026F8020B394600200BF087
:1013500073FE0446EDE72E48FA2221460AF046F8CD
:101360002C60DFF8D880D8F80030012B3CD12A4D12
:101370002A4F2B4E002437F8023B0C9336F8023BE1
:101380000B93284B35F8022B0D92584604EB0309BA
:10139000FFF7DAF8CDE908011198FFF7D5F8CDE9A4
:1013A00006011098FFF7D0F8CDE904010F98FFF778
:1013B000CBF80B9B0093CDE90201DDE90C321A4911
:1013C000484601F0F3F9194BAB420444D3D122460D
:1013D0001449174806F069FC154806F080FC154AC8
:1013E0000023C8F800301360DAF8B80007F0EEF90F
:1013F000012007F06AF981E700000240000C02407A
:10140000700F0020300F00202C0F002087FD0008F7
:10141000EC0200202C0E002008070020FC08002011
:10142000F00A0020E06F002089FD00081C07002062
:10143000045D0020F0030020E80C0020F8030020E9
:1014400010B594B0102200210AA809F0CFFF142291
:10145000002103A809F0CAFF1F4B002101911A6C5B
:1014600042F080521A641B6C03F080530193019B7D
:101470001A4B02911A6842F480421A601B6803F406
:1014800080430293029B01214FF480330224CDE973
:1014900008134FF480030420CDE90E43A823CDE9BF
:1014A0001003072308A81294139302F09DFF08B1BC
:1014B000FFF7DAFE0F23CDE9033405904FF4A05275
:1014C0004FF48053052103A8CDE9062303F06AF900
:1014D0000028EDD114B010BD00380240007000406B
:1014E00080B594B0BC4D002401F00EFCFFF7A8FFBE
:1014F000142200210FA809F079FF03942B6BB74841
:1015000043F080032B632B6B03F080030393039B57
:1015100004942B6B43F004032B632B6B03F0040345
:101520000493049B05942B6B43F001032B632B6BFB
:1015300003F001030593059B06942B6B43F0100306
:101540002B632B6B03F010030693069B07942B6B06
:1015500043F002032B632B6B03F002030793079BFB
:1015600008942B6B43F008032B632B6B03F00803E9
:10157000089322461021089B02F0D2F9984822468F
:101580004FF4024102F0CCF9224696484FF4006134
:1015900002F0C6F90126914810270FA9CDE90F7670
:1015A000CDE9114402F0E2F84FF402438C480FA950
:1015B000CDE90F36CDE9114402F0D8F84FF40063BD
:1015C00088480FA9CDE90F36CDE9114402F0CEF8D5
:1015D00001942B6B43F480032B632B6B03F4800388
:1015E0000193019B02942B6B43F400132B632B6B31
:1015F0007D4D03F400132246052102930C20029B2B
:1016000001F090FE0C2001F0BFFE224605210F20C4
:1016100001F088FE0F2001F0B7FE22460521382098
:1016200001F080FE382001F0AFFE224605213A206D
:1016300001F078FE3A2001F0A7FE224605213B206A
:1016400001F070FE3B2001F09FFE3A4621460FA8B4
:1016500009F0CCFE654AAC605323C5E90023284657
:10166000C723CDE90944C5E90334AC6103F042FE68
:1016700008B1FFF7F9FD4FF480530FA928460F93E7
:1016800003F06EFE0028F4D12023CDE9093009A92A
:10169000284603F001FF05460028EAD101463A46F4
:1016A0000BA809F0A3FE524CDFF86CC1A5604FF403
:1016B0008033C4E900C384F820504FF000634FF03A
:1016C000805EE56020460525C4E90A3E266126764F
:1016D000E56184F83060666101F056FB0028C8D1EE
:1016E0000D900BA92046CDE90B6601F075FD002891
:1016F000BFD10B2602230BA92046CDE90B6301F0D5
:101700006BFD0028B5D10C200323CDE90B030BA9F9
:10171000204601F061FD0028ABD104230BA920462F
:101720000B970C9301F058FD0028A2D111230BA9AF
:101730002046CDE90B3501F04FFD0346002898D136
:101740002C482D4983624FF48272C0E90012C0E92F
:101750000233C0E90433C0E908334FF400720A23AE
:10176000C0E90627C36203F0A7F9002881D1234C02
:10177000FFF784FD09F034F903232370A4F8A230A5
:10178000174BE3604FF4004323821D4B1D4AC4F8FE
:10179000983080236260A4F8A430022204232046FB
:1017A00084F84031227205F05DFB204605F0D0FB45
:1017B00015490F482A4601F08DFB0B4803F01EFC2B
:1017C00006F00EFF114A1248002106F035FF114BBA
:1017D000186006F017FFFEE70038024000000240E4
:1017E00000100240000C02407C0600200004004073
:1017F000FC0300202406002000300140E80C0020FB
:101800002C0E0020C4060020E6030020ACFD0008DA
:10181000B1120008F40300200020014008B505487B
:101820000922012105F05AF9BDE80840024809F0F3
:1018300003BB00BF700F0020300F00209A4238BF5A
:10184000885470477047000008B1014B98547047A6
:10185000E06F00202DE9F84F99460D9B15469A0739
:10186000DDE90B4706468B4622D02A460A9901EB52
:1018700004081444A2421FD10D9B9B0705D5A2EB7F
:101880000508474505EB08041FD82046BDE8F88F3A
:101890004B4659462020B04708F10108B8450AEBED
:1018A0000802F5D33A1BBC4288BF00222A44DDE778
:1018B000A046A5EB040AF1E702F1010A18F8010DB0
:1018C0004B465946B0475246D4E74B462246594606
:1018D0002020B04708F10108D3E72DE9F047DDE902
:1018E0000D7616F0020FDDE90854DDE90BC89DF80E
:1018F00028E01FD106F001094FB1B9F1000F06D061
:10190000BEF1000F02D116F00C0F00D0013F4FF0D6
:10191000300A04E0202C04D005F804A00134A045CE
:10192000F8D84FF0300AB9F1000F03D0BC4201D211
:101930001F2C34D916F0100F1FD016F4806F33D13E
:1019400094B3444501D0BC422ED1B4F101082AD051
:10195000BCF1100F33D1023C16F0200F31D11F2CF7
:1019600015D84FF0780C05F804C001341F2C0ED8A0
:101970004FF0300C05F804C001341F2C07D8BEF11D
:10198000000F23D04FF02D0C05F804C00134CDE931
:101990000A76CDE90854BDE8F047FFF75BBF05F8CC
:1019A00004A00134BFE74446BCF1100FD4D0BCF111
:1019B000020FDBD11F2CEAD84FF0620CD3E744466C
:1019C000F5E71F2CE3D84FF0580CCCE716F0040FC6
:1019D00002D04FF02B0CD7E716F0080FD7D04FF0FE
:1019E000200CD1E72DE9F04391B0189D1A9E1D9F60
:1019F0000DB927F010077C0500D515B317F0200F9F
:101A000014BF4FF0410E4FF0610EAC460DF12008AF
:101A10000025AEF10A0EBCFBF6F906FB19C95FFA08
:101A200089F4B9F1090F94BF30347444E4B2B44579
:101A300008F8014BBCFBF6F405F1010501D3202D9C
:101A400010D11C9C05941B9C0697CDE903649DF85E
:101A50006440CDE9015408AC0094FFF73EFF11B09B
:101A6000BDE8F083A446D6E72DE9F04F2DED048BB9
:101A700093B0DDE92065289F9A4656EA050308BF22
:101A800027F0100709EE102A7A05DDE924B908EEDF
:101A9000100A08EE901A02D556EA05033DD017F059
:101AA000200F14BF412361230A3B0DF128080024B5
:101AB00009935A464B4630462946FFF7E5F8D2B21D
:101AC000092A8ABF099B3032D2185E45D2B275EB23
:101AD000090308F8012B04F1010401D3202C19D1CA
:101AE000279B0593269B0697CDE903B39DF8883085
:101AF000CDE901430AAB009319EE102A18EE901AB3
:101B000018EE100A5346FFF7E8FE13B0BDEC048B45
:101B1000BDE8F08F06460D46CBE70024E0E7000065
:101B20002DE9F04F2DED088B8DB009EE903ADDE9EF
:101B300020439DED1E7B0A93229B079209EE100A1B
:101B4000B0EE478AF0EE678A8A46069351EC170B8F
:101B500053EC172BFEF7B8FF80B1D14B51EC180BAB
:101B60004FF0FF32FEF7D8FF40B951EC180B4FF0A1
:101B7000FF326FF48013FEF7B1FF98B1069B2293FA
:101B80000A9B079ACDE9204319EE100A19EE903A04
:101B900051468DED1E8B0DB0BDEC088BBDE8F04FAE
:101BA00000F0A2B951EC180B00220023FEF796FFBB
:101BB000002800F0458118EE903A18EE108A03F1E3
:101BC0000049069BC9F30A5013F48063A0F2FF306A
:101BD00008BF06240B93FEF7A5FCA1A3D3E90023BD
:101BE000FEF70AFDA0A3D3E90023FEF74FFBC9F3DC
:101BF00013050F4645F07F510646AA4B002240468A
:101C000041F44011FEF740FB99A3D3E90023FEF70E
:101C1000F3FC02460B4630463946FEF737FBFEF72B
:101C20009BFF8346FEF77EFC93A3D3E90023064681
:101C30000F46FEF7E1FC9C4B0022FEF727FBFEF768
:101C40008BFF8FA3D3E90023054639463046FEF7C4
:101C5000D3FC064628460F46FEF764FC8AA3D3E968
:101C60000023FEF7C9FC02460B4630463946FEF714
:101C70000BFB02460B4606460F46FEF7BDFC3246FE
:101C800041EC1A0B3B4630463946FEF7FFFA874BCC
:101C900041EC1B0B002251EC1A0BFEF7D7FD844BD5
:101CA0000022FEF7F3FA02460B4651EC1A0BFEF740
:101CB000CDFD804B0022FEF7E9FA02460B4651ECBF
:101CC0001A0BFEF7C3FD324641EC1A0B3B460020CF
:101CD0004FF08041FEF7D8FA02460B4651EC1A0B42
:101CE000FEF7D4FA02460B4651EC1B0BFEF7AEFD95
:101CF00005F2FF35704B0022FEF7C8FA00222B05D3
:101D0000FEF77AFC42464B4606460F46FEF704FFB6
:101D1000002840F09880CDE908670BF16303C72BDA
:101D2000069B34BF04250525190522D558A3D3E900
:101D3000002340464946FEF7E5FE002800F0BE803D
:101D400055A3D3E9002340464946FEF7C7FE0028C5
:101D500000F0B480069B5C45C8BFA4EB0B0043F4C5
:101D600080634FF00005CCBF00F1FF3400240693E0
:101D7000AB460A9B9D4238BF5E1B069B28BF0026D0
:101D800013F0020702D0002D18BF0026BBF1000F90
:101D900007D040464946DDE90823FEF757FD804657
:101DA000894651EC180B00220023FEF797FE10B174
:101DB00009F100439946069B079A029423F40063B5
:101DC000CDE90363CDE9008919EE903A19EE100AC6
:101DD000514600F089F875B3069B13F0200F00F10F
:101DE0000106024619EE903A14BF4520652051467F
:101DF00019EE104AA0470523002205938BEAEB70E9
:101E00000A23CDE90232A0EBEB704FEADB73013D10
:101E10000193009019EE903A19EE100A049532469B
:101E20005146FFF7DFFD37B1079BC51A079B5819CD
:101E30000A9BAB424BD80DB0BDEC088BBDE8F08FD0
:101E400059EC188BBDE61A4B002230463946FEF796
:101E5000FDFC0BF1FF3BCDE908015EE7AFF300802D
:101E6000FB799F501344D33FB3C8608B288AC63F89
:101E700061436F63A787D23F71A379094F930A40EB
:101E80001655B5BBB16B0240EF39FAFE422EE63F64
:101E90002D431CEBE2361A3F0000000080842E41E7
:101EA000FFFFEF7F0000F83F0000E03F00002C4004
:101EB00000002440000018400000F03F002C3FF4D8
:101EC00058AF0B9B002B3FF454AF013C51E7024647
:101ED00019EE903A19EE104A51462020A0470135DC
:101EE000A4E700BF000000002DE9F04F2DED088BA6
:101EF0008FB0DDE920AB09EE103ADDE9225308EEA0
:101F0000100A08EE902A0F46049352465B4650464C
:101F10005946249EFEF7D8FDA0B9049B22930323C3
:101F20002193B94B2396209318EE902A19EE103A7C
:101F300018EE100A39460FB0BDEC088BBDE8F04F23
:101F4000FFF788BC4FF0FF326FF4801350465946BC
:101F5000FEF7C4FD30B1049B229304232193239602
:101F6000AA4BE0E7AA4B4FF0FF3250465946FEF726
:101F7000D3FD70B1A74A0499239606F00403002B01
:101F800008BF0322A44B1CBF13460422CDE9212124
:101F9000C9E799A3D3E9002350465946FEF7BCFD93
:101FA00038B997A3D3E9002350465946FEF796FD6A
:101FB00098B1049B2496CDE9225318EE902A19EE8D
:101FC000103A18EE100A3946CDE920AB0FB0BDEC3F
:101FD000088BBDE8F04FFFF7A3BD00220023504659
:101FE0005946FEF77BFD002800F081805B46524693
:101FF00000200021FEF748F9012382468B46059315
:1020000016F4806F08BF062506ABA5F12002A9468D
:102010003021B9F1090FA5EB090406D909F1FF39FF
:102020004A4503F8011BF4D1202459465046FEF7D7
:1020300093FD7A4B03EBC90393ED007B0546B0EEAD
:1020400047AAF0EE67AAFEF76DFA02460B46504625
:102050005946FEF719F953EC1A2BFEF7CDFA024652
:102060000B4643EC1B2BFEF79FFD8046FEF74AFA1A
:1020700002460B4651EC1B0BFEF706F902460B46D7
:1020800043EC1B2B664B0022FEF746FD88B308F19C
:1020900001084046FEF736FA02460B4651EC1A0B91
:1020A000FEF726FD10B101354FF00008B9F1000F21
:1020B00050D12846FEF736FA02460B46504659469E
:1020C000FEF7E2F8564B002280468946FEF706FDF1
:1020D00030B1534B002240464946FEF71DFD10B17A
:1020E000E80700D5013506AB23440A2259E00590E4
:1020F00086E74B4B51EC1B0B0022FEF7EFFC002850
:10210000D4D1B8F1000F02D018F0010FCED008F1F1
:102110000108CBE7B8FBF1F001FB10823032B8F1D7
:10212000090F03F8012B09F1FF3904F1010428D844
:10213000A14406AA3021202C11D04C4504F1010302
:1021400021D104F138020DEB02042E2204F8202CD8
:102150001C46C8E706AB23440A21202CDAD106F03E
:102160000303012B06AB39D1049A002A36D0059A15
:1021700012B916F00C0F02D0049A013A04923022E0
:1021800014E08046E9E7A1541C46D4E795FBF2F140
:1021900002FB1155303503F8015B01340D4600296F
:1021A000DDD0202CF2D1DAE71A5501340499A1428E
:1021B00014D9202CF8D1049A0093CDE9014219EEEC
:1021C000103A18EE902A18EE100A03963946FFF7D7
:1021D00041FB0FB0BDEC088BBDE8F08F202CEAD09E
:1021E000059AFAB104F138026A442D2102F8201C44
:1021F0000134E0E7AFF300800000000065CDCD4181
:102200000000000065CDCDC1D9FD0008DDFD00084E
:10221000FFFFEF7FD4FD0008D0FD0008E8FD0008B7
:102220000000E03F710704D504F138026A442B2115
:10223000DCE73207BFD504F138026A442021D5E734
:102240002DE9F04F91B000290A93BA4B1A9E90469F
:1022500014BF8146994600250A9B187858B9454510
:102260002CBF08F1FF322A4643460020C8472846C3
:1022700011B0BDE8F08F0A9B252803F101030A93F2
:1022800006D02A466C1C43460B91C8472546B6E14A
:10229000002206E02D2B14D0302B0CD142F001028D
:1022A0000A900A9810F8013B2B2B0DD0F2D8202B66
:1022B0000DD0232B0ED0A3F13004092C28D80027F1
:1022C00010E042F00202EBE742F00402E8E742F0DD
:1022D0000802E5E742F01002E2E70A2404FB0737B0
:1022E000303F0A900A9810F8013BA3F13004092C02
:1022F000F3D90A9B1B782E2B67D10A9B581C5B785D
:10230000A3F13004092C42F4806255D8002411E076
:102310002A2B08D156F8047B0A90002FBCBF42F04C
:1023200002027F42E5E70027E3E70A2000FB0434CE
:10233000303C604684461CF8013BA3F1300EBEF1F0
:10234000090FF2D9034613F801CBBCF16C0F48D04A
:102350003ED8BCF1680F4DD0BCF16A0F55D0034692
:1023600013F8010B0A9378288BD8572850D84528A2
:1023700005D086D9462800F02F81472881D100F06A
:10238000DF03472B04BF00F0FD0042F40062452844
:1023900008BF42F02002CDE90372073626F0070697
:1023A0000294F6E802234846CDE9002343462A4634
:1023B0000B91FFF7B5FB21E12A2B07D156F8044B0F
:1023C0000A9824EAE4740230BCE70A980024B9E7CA
:1023D000BCF1740F02D0BCF17A0FC0D142F480720C
:1023E000BEE790F801C0BCF16C0FF7D142F4407227
:1023F000831CB5E790F801C0BCF1680F02D042F031
:102400008002ADE742F0C002F2E742F40072A7E7B3
:10241000A0F15803202B3FF634AF0FF2080C5CF804
:1024200023F000BFA92400088322000883220008AB
:1024300083220008832200088322000883220008E8
:10244000832200088322000883220008A9240008B0
:1024500003260008A92400087F230008DD250008C2
:102460007F23000883220008A92400088322000893
:1024700083220008832200088322000883220008A8
:10248000A92400084B2700088322000883220008A3
:102490007F26000883220008A92400088322000860
:1024A00083220008A9240008782800F064815828B5
:1024B00000F05F816F2800F06081622800F05F818A
:1024C000692822F010024FF00A0303D0642801D0DB
:1024D00022F00C0212F4806F18BF22F0010269286A
:1024E00002F4007C01D0642841D1BCF1000F23D05C
:1024F000073626F00706B24676685AF8080B0493AA
:1025000000230593F30F002E0293CDE90772069482
:10251000034602DA434266EB4606CDE900364346FF
:102520002A4648460B91FFF79FFA0B9905465646F7
:1025300092E600BF45180008D00506F1040A0CD544
:102540003068CDE90472CDE9023400284FEAD07337
:102550000193B8BF4042009027E012F0400F30686E
:1025600001D0C0B2EDE7160648BF00B2E9E7BCF102
:10257000000F0ED0CDE907720022CDE904320736F4
:1025800026F0070A06940292FAE80223CDE9002316
:10259000C5E7D00506F1040A0ED5CDE90472CDE9F0
:1025A0000234CDF804C03368009343462A464846B7
:1025B0000B91FFF717FAB8E712F0400F306807D019
:1025C000C0B2CDE902340023CDE904720193C2E721
:1025D000160648BF80B2F4E742F02002CDE903724C
:1025E000073626F007060294F6E802234846CDE9AE
:1025F000002343462A460B91FFF776FC05460B99CC
:102600002AE612F0020426D04FF0010A56F8040B15
:102610000B9143462A46C0B2C84705F1010B0B99FE
:102620005CB354465A4620E00B9143462020C847ED
:102630000B990AEB05020AF1010A5745F4D8002F5D
:1026400007F1FF3308BF002307F1010A1D4408BF4B
:102650004FF0020ADAE7A246EBE70B91434620204F
:10266000551CC8470B9901342A46BC42F5D3A7EB49
:102670000A03574538BF00239B445D46ECE53346CB
:10268000002C53F804AB0B9314BF23464FF0FF33D9
:102690005344D3469BF8000008B19B4511D112F476
:1026A0008063ABEB0A0B0C9302D0A34528BFA34673
:1026B00012F002030D931BD1ABEB05032A460E93D8
:1026C00009E00BF1010BE5E70F9143462020561C72
:1026D000C8470F9932460E9BD3189F42F4D8A7EBF8
:1026E0000B035F4538BF00230BF1010B1D449B44D6
:1026F0005646A5EB0A0A05E01C460E9143462A46BB
:10270000C8470E990AEB060516F8010B28B10C9B79
:10271000002BF2D0631E002CEED10D9B9BB12A46FC
:10272000ABEB050406E00C9143462020561CC8473D
:102730000C9932461319BB42F5D3A7EB0B035F4547
:1027400038BF00231D440B9E86E542F0210208237A
:10275000CDE90343059200231022CDE9013256F85A
:10276000043B00932A46434648460B91FFF73AF94B
:1027700044E742F020021023AAE60823A8E6022339
:10278000A6E600BF0FB41FB506AA02A952F8043B83
:102790000392009204484FF0FF32FFF751FD05B05D
:1027A0005DF804EB04B07047491800080EB40FB58B
:1027B00005AA014652F8043B0392009204484FF0E8
:1027C000FF32FFF73DFD04B05DF804EB03B0704746
:1027D0003D18000882B00E4B00220092596C41F463
:1027E00080415964596C01F4804100910099019233
:1027F000196C41F0805119641B6C03F080530193F4
:10280000019B0F216FF0010002B000F08BBD00BFF3
:102810000038024070B5064688B01422002103A893
:1028200008F0E4FD32682D4B9A4254D103F58C3305
:10283000002500955A6C2A4842F480725A645A6CFA
:1028400002F480720092009A01951A6B42F0040221
:102850001A631A6B02F004020192019A02951A6B34
:1028600042F001021A631B6B03F00103029303247D
:10287000029B03A90623CDE9033400F077FF02236E
:102880001848059503A9CDE9033400F06FFF164CF5
:10289000164B4FF48062C4E900354FF40063C4E97D
:1028A00004234FF400514FF480732046C4E90255CD
:1028B000C4E90613C4E9085500F08AFD08B1FEF723
:1028C000D3FCB463122000220521A66300F02AFD88
:1028D000122000F059FD08B070BD00BF002001407B
:1028E000000802400000024044040020106402403E
:1028F00070B5064688B01422002103A808F076FDC2
:1029000032682D4B9A4255D1002503F58433019549
:102910005A6C42F480525A645A6C02F4805201920A
:10292000019A02951A6B42F001021A631B6B03F0C5
:1029300001030293029BE0200223CDE90303032459
:1029400005231E4803A9CDE9064300F00FFF1C4CE8
:10295000DFF878C04FF0C063C4E900C320464FF4ED
:102960008063C4E90255C4E90435C4E90655C4E9E5
:10297000085500F02DFD08B1FEF776FC114AF4640D
:10298000A663114C4FF0C063C4E90023402100232B
:102990004FF480622046C4E90213C4E90423C4E969
:1029A0000633C4E9083300F013FD08B1FEF75CFC00
:1029B000B464A66308B070BD00300140000002405E
:1029C000A404002058640240040500204064024032
:1029D0000268094B9A4282B00BD100230193074B46
:1029E0001A6C42F002021A641B6C03F0020301939A
:1029F000019B02B0704700BF000400400038024055
:102A000070B5064688B01422002103A808F0EEFC39
:102A10003268324B9A425ED1002503F5F8330195B6
:102A20001A6C42F480221A641A6C02F48022019219
:102A3000019A02951A6B42F002021A631B6B03F0B3
:102A400002030293029B4FF440600223CDE903038B
:102A500003240723224803A9CDE9064300F086FE9C
:102A6000204CDFF88CC04FF00063C4E900C320465F
:102A70004FF48063C4E90255C4E90435C4E906553E
:102A8000C4E9085500F0A4FC08B1FEF7EDFB164AB6
:102A9000B463A663154C4FF06063C4E90023402182
:102AA00000234FF480622046C4E90213C4E90423E2
:102AB000C4E90633C4E9083300F08AFC08B1FEF724
:102AC000D3FB7463272000220521A66300F02AFCB3
:102AD000272000F059FC08B070BD00BF004800403E
:102AE000000402406405002070600240C40500201C
:102AF0002860024070B588B000230293204B1A6C06
:102B000042F010021A641B6C03F010030293054696
:102B100001A903A8029B01F007FF069B4BBB01F034
:102B2000E3FE184E184B336040F2E733F360174B67
:102B3000B0FBF3F3013B7360304600233361B360B5
:102B4000B36102F0D7FB044680B9304602F08CFA3C
:102B5000044658B9362000F017FC0F2D0DD8224638
:102B60002946362000F0DEFB094B1D60204608B0E8
:102B700070BD01F0B9FE4000D3E70124F6E700BFC5
:102B8000003802405C1300200010004040420F005B
:102B900008000020FEE7FEE7FEE7FEE7FEE77047DD
:102BA000014800F025BD00BF64050020014800F089
:102BB0001FBD00BFC4050020014800F03DBA00BFA2
:102BC000FC030020014802F07DBF00BFC4060020C6
:102BD000014802F087BA00BF5C130020014800F0F2
:102BE00007BD00BF44040020014800F001BD00BF44
:102BF000A4040020014800F0FBBC00BF0405002035
:102C0000014801F085B800BFE0A100200120704715
:102C100008B508F0A7FB162303604FF0FF3008BD8E
:102C200008B508F09FFB16230360FEE770B50D465C
:102C300014460E46731B9C4201DC204670BDAFF368
:102C4000008006F8010BF5E74FF0FF3070474FF4B6
:102C500000534B60002070470120704700207047F0
:102C60000B4A116810B5034609B90A49116010688A
:102C700009490A4C0344091B8B4206D908F072FB30
:102C80000C2303604FF0FF3010BD1360FCE700BF62
:102C9000A413002030A9002000000220000400003E
:102CA000034AD2F8883043F47003C2F88830704782
:102CB00000ED00E0DFF834D00D480E490E4A002345
:102CC00002E0D458C4500433C4188C42F9D30B4AE0
:102CD0000B4C002301E013600432A242FBD3FFF748
:102CE000DFFF08F045FBFEF7FBFB7047000002200A
:102CF00000000020D0020020B8040108D00200200B
:102D00002CA90020FEE7000008B50B4B1A6842F41E
:102D100000721A601A6842F480621A601A6842F4FB
:102D200080721A60032000F0EBFA0F20FFF7E2FE3A
:102D3000FFF750FD002008BD003C0240034A044B51
:102D400011681B780B441360704700BFA813002064
:102D500004000020014B1868704700BFA813002032
:102D600038B50446FFF7F6FF631C1CBF054B1B7804
:102D7000054618BFE418FFF7EDFF431BA342FAD343
:102D800038BD00BF0400002038B50446002800F01C
:102D90009B80056C25B9FFF73DFD656484F83C50C8
:102DA000236CDB0600F18E80236C23F4885323F020
:102DB000020343F002032364444B5A6822F4403276
:102DC0005A605A6861680A435A60236821695A68E0
:102DD00022F480725A605A6842EA01225A605A68A4
:102DE000A16822F040725A605A680A435A609A6891
:102DF000E16822F400629A609A680A439A60344952
:102E0000A26A8A4252D0996821F0706199609968EB
:102E10000A439A609A68E16A22F040529A609A687E
:102E20000A439A609A6822F002029A609A68217EA8
:102E300042EA41029A6094F82020002A3ED05A6863
:102E4000616A42F400625A605A6822F460425A6031
:102E50005A68013942EA41325A60DA6AE16922F479
:102E60007002DA62DA6A013942EA0152DA629A6879
:102E700022F400729A609A6894F8301042EA412273
:102E80009A609A68616922F480629A609A68002068
:102E900042EA81229A606064236C23F0030343F0CA
:102EA00001032364002384F83C3038BD9A6822F083
:102EB00070629A609A6822F04052B2E75A6822F42F
:102EC0000062C9E70120EDE70120EEE700230140A1
:102ED0000100000F73B513460022019290F83C20C8
:102EE000012A054600F08C800122066880F83C200B
:102EF000B268D40754D5B268D00564D4B46814F06D
:102F0000010474D0286C20F4E06020F0010040F44B
:102F1000807028647268520541BF286C20F44050CC
:102F200040F4805028642A6CA86B12F480521CBFB5
:102F30006A6C22F006026A640024334A85F83C4039
:102F4000C263324A0264324AC2646FF022023260C3
:102F5000726842F080627260B26842F48072B2605D
:102F60000A4606F14C0100F0B3FA2A4A2B68506871
:102F7000294910F01F0032D18B4207D001F5807132
:102F80008B4225D1526812F01F0F07D1986810F0BC
:102F9000405037D19A6842F080429A6002B070BDCA
:102FA000B26842F00102B2601C4A10681C4AB0FBD1
:102FB000F2F000EB40000190019A002A9BD0019AA8
:102FC000013A0192F8E7B26822F48072B26095E7A4
:102FD00014498B42E2D1526812F0100FD5E78B42B0
:102FE00010D1986810F04050D4D02046D6E72B6C12
:102FF00043F010032B646B6C43F001036B64F4E744
:103000000220CBE70020C9E76B3100082B30000815
:10301000553100080023014000200140000000203D
:1030200040420F0000220140704708B5806BFFF757
:10303000FBFF08BD70477047036870B51E685D6888
:10304000B20704462BD5A80629D5226CD1065EBF4F
:10305000226C42F4007222649A6812F0405F17D129
:10306000227EAAB9DA6A12F4700F02D09A68520569
:103070000ED45A6822F020025A60236C23F4807325
:103080002364236CD8045EBF236C43F001032364E4
:103090002046FEF7A7F823686FF012021A60710746
:1030A00033D52A0631D5236CDB065EBF236C43F48F
:1030B0000053236423689A6812F4401F1ED19A6B50
:1030C00012F4401F02D09A68500517D45A6851056F
:1030D00014D49A6812F0405F10D1227E72B95A68F7
:1030E00022F080025A60236C23F480532364236C03
:1030F000DA055EBF236C43F001032364204600F031
:10310000FDF823686FF00C021A60F30710D568060B
:103110000ED523681B68D9070AD5236C43F4803386
:1031200023642046FFF786FF23686FF001021A60D0
:10313000B2060ED56B010CD5636C43F002036364D9
:1031400023686FF020051D602046FFF774FF236899
:103150001D6070BD806B08B540230364436C43F071
:1031600004034364FFF767FF08BD836B1A6C12F01A
:10317000500F10B51A6C23D142F400721A641A6809
:10318000916811F0405F17D1197EA9B9D16A11F485
:10319000700F02D0916848050ED4516821F02001CB
:1031A00051601A6C22F480721A641A6CD1045EBFEA
:1031B0001A6C42F001021A641846FEF713F810BDAB
:1031C000D20603D51846FFF736FFF8E79B6BBDE83C
:1031D0001040DB6C18470000F7B50023019390F80E
:1031E0003C30012B66D0012380F83C300D68036829
:1031F0008E68092DACB231D904EB4402DF681E3A67
:103200004FF0070C0CFA02FC27EA0C07DF60DF68BE
:1032100006FA02F23A43DA604968062901EB8102B4
:103220002CD8596B053A1F26964021EA06015963AE
:10323000596B04FA02F20A435A632C4A934207D1AB
:10324000122D39D1D2F8043343F48003C2F8043389
:10325000002380F83C30184603B0F0BD1F6905EB31
:1032600045024FF0070C0CFA02FC27EA0C071F611D
:103270001F6906FA02F23A431A61CDE70C294FF0B2
:103280001F010BD81E6B233A914026EA01011963F6
:10329000196B04FA02F20A431A63CEE7DE6A413A76
:1032A000914026EA0101D962D96A04FA02F20A437E
:1032B000DA62C2E70220CFE7A5F11003012BC7D8DD
:1032C0000B4A5368102D43F400035360C0D1094BDF
:1032D000094A1B68B3FBF2F30A2253430193019B93
:1032E000002BB5D0019B013BF8E700BF0020014057
:1032F000002301400000002040420F007047000002
:103300000749CA6822F4E0620302120403F4E0638E
:10331000120C134343F0BF6343F40033CB60704798
:1033200000ED00E0164B30B5DC68C4F30224C4F1B4
:103330000705231D042D28BF0425062B4FF0FF335E
:103340008CBF033C002403FA05F521EA0501A340E4
:1033500022EA0302A140002841EA0203ACBF00F1C7
:103360006040084A4FEA0313B8BF00F00F00DBB219
:10337000AABF00F56140135480F8003330BD00BF90
:1033800000ED00E014ED00E0002808DB4209012315
:1033900000F01F0003FA00F0014B43F822007047D1
:1033A00000E100E0036810B5084C0246D9B21039BC
:1033B0001820B1FBF0F0205CD06523F47F7020F082
:1033C00003005F2988BF0430906510BD50FE0008DF
:1033D00070B50446FFF7BEFC0546002C73D00223EF
:1033E00084F835302268002384F83430136823F0E1
:1033F0000103136021680B68D8072FD40B68334D85
:10340000A0691D40D4E901231343E26813432269F4
:10341000134362691343E26903431343226A13436C
:10342000626A042A43EA050302BFD4E90B56354316
:103430002B430B604B69042A23F0070343EA020382
:1034400033D1A26AE56A13437DB390B9012A21D032
:1034500032F0020229D1EA0127D51EE0FFF77AFCFB
:10346000401B0528C6D920236365032084F8350056
:1034700070BDB0F5005F14D1032A16D801A050F832
:1034800022F000BF9B340008573400089B3400082A
:1034900095340008B5F1C07F07D140236365012052
:1034A000E4E7022AF9D9032AD5D04B612046FFF779
:1034B00079FFE26D3F239340836000200123606524
:1034C00084F83530D4E70120D2E700BF3F8010F008
:1034D00070B590F83440866D012C31D0012480F80D
:1034E000344090F83540012C4FF000054FF00204B5
:1034F00024D180F8354004684565256825F4802589
:10350000256063608368402B0EBFA260A160E2600B
:10351000C26D08BFE1603F239340B360236843F06E
:1035200016032360036C1BB1236843F00803236078
:10353000236843F001032360002070BD80F83450FD
:103540000220FAE770B50446866DFFF703FC94F895
:103550003530022B054606D080236365002384F8AE
:103560003430012070BD23681A6822F016021A60F8
:103570005A6922F080025A61226C0AB9A26C1AB10F
:103580001A6822F008021A601A6822F001021A6012
:1035900023681B6813F001030AD1E16D3F228A40C2
:1035A000B260012284F8352084F834301846D9E717
:1035B000FFF7D0FB401B0528EAD9202363650320D1
:1035C000002384F8350084F83430CBE790F83530A8
:1035D000022B03D080234365012070470268052336
:1035E00080F83530136823F0010313600020704722
:1035F000F7B5002301935C4B856D1F68C36D2E6882
:1036000008229A40324204460CD0016808684007FC
:1036100008D5086820F004000860AA60626D42F0D6
:103620000102626501229A40324208D0216849694C
:10363000090641BFAA60626D42F00202626504227F
:103640009A40324208D021680968880741BFAA60C1
:10365000626D42F00402626510229A40324210D03C
:103660002368196809070CD5AA601A68500337D572
:103670001B68190301D4236C00E0A36C0BB1204636
:103680009847E16D20228A4032423AD02368186878
:10369000C60636D5AA6094F83520052A1A6827D1BF
:1036A00022F016021A605A6922F080025A61226CD6
:1036B0000AB9A26C1AB11A6822F008021A603F23F4
:1036C0008B40AB60012384F83530002384F834301C
:1036D000236D002B45D0204603B0BDE8F0401847CD
:1036E0001A68D2055EBF1A6822F008021A60C2E7A3
:1036F000500327D51B68190331D4636C0BB12046E6
:103700009847636D6BB3636DDA0719D522684FF480
:103710001653B7FBF3F7052384F83530136823F00D
:1037200001031360019B0133BB42019302D813686C
:10373000DB07F7D4012384F83530002384F83430D4
:10374000E36CC6E71A6812F4807208D1196821F098
:1037500010011960012384F8353084F83420E36BBC
:10376000CCE703B0F0BD00BF000000202DE9F74F0B
:10377000DFF8A891674A00230D6801249C4004EA01
:10378000050CAC4340F0B1804D6805F003044FEAEE
:1037900043080326671E06FA08F6012F6FEA06069D
:1037A00034D8876807EA060ECF6807FA08F747EAB1
:1037B0000E078760476827EA0C0EC5F300179F4085
:1037C00047EA0E074760C76807EA060E8F6807FAE0
:1037D00008F747EA0E07022CC76019D14FEAD30A4F
:1037E00000EB8A0A03F0070BDAF820704FEA8B0B24
:1037F0004FF00F0E0EFA0BFE27EA0E0E0F6907FAB6
:103800000BF747EA0E07CAF8207001E0032CDAD163
:10381000076804FA08F43E40264315F4403F06606A
:1038200063D04FF0000ACDF804A0D9F844603A4CB8
:1038300046F48046C9F84460D9F8446006F48046EE
:103840000196019E23F0030606F1804606F59C369C
:1038500003F0030ED6F808804FEA8E0E0F2707FA02
:103860000EF7A04228EA070746D004F58064A0427C
:1038700044D004F58064A04242D004F58064A042A4
:1038800040D004F58064A0423ED004F58064A0429C
:103890003CD004F58064A0423AD004F58064A04294
:1038A0000CBF0724082404FA0EF43C43B460946867
:1038B0006FEA0C06EF0254BF34404CEA04049460F3
:1038C000D468AF0254BF34404CEA0404D460546856
:1038D000AF0354BF34404CEA040454601468ED0351
:1038E00054BF34404CEA040414600133102B7FF4BD
:1038F00043AF03B0BDE8F08F5446D4E70124D2E7CC
:103900000224D0E70324CEE70424CCE70524CAE749
:103910000624C8E7003C0140000002400038024095
:103920000AB1816170470904FBE7436901EA0302B8
:1039300021EA030141EA024181617047F0B5044682
:103940008BB060B390F8BD34056803F0FF021BB97B
:1039500080F8BC2407F034F9032384F8BD34EB6B02
:10396000254613F4807355F8100B08BF236102F04D
:10397000BFFB0FCD6E460FC60FCD0FC695E80300F7
:1039800086E803002546271D97E80E0055F8100B22
:1039900002F0F8FA064620B1022384F8BD3401256E
:1039A0004EE00146206802F0A9FB3046D4F804C07E
:1039B00024264FF0010E0146C2B2944500F10100E9
:1039C0001CD8002324261946D8B2844503F10103EC
:1039D00022D80FCD6E460FC60FCD0FC695E8030057
:1039E00086E8030097E80E00206802F009FC012336
:1039F0000546F0B1022284F8BD24D0E706FB02435D
:103A0000C3E9121183F83DE083F83C20A3F8442079
:103A100083F840105965CFE706FB0042C2E9A211C6
:103A200082F87D1282F87C0282F88012C2F8941229
:103A3000CAE784F83800206884F8BD3402F088FFB3
:103A400028460BB0F0BD10B50446006894F8BC34AD
:103A5000012B15D0012384F8BC34A36A012B06D1B5
:103A6000A369012B1EBF836B43F48033836302F091
:103A700039FB206802F05EFF002084F8BC0410BD12
:103A80000220FCE710B590F8BC24012A04460BD0B4
:103A9000012280F8BC2480F83810006802F03AFF58
:103AA000002084F8BC0410BD0220FCE770B501F0D2
:103AB0000F0606EBC60411F0800F05464FEA84049A
:103AC0004FF024001FD000FB065004F13C010124FC
:103AD000294480F83D40CA604A780E700B7102B1EB
:103AE0000E81022B04BF00234B7195F8BC34012BCF
:103AF00012D00123286885F8BC3402F044FC002071
:103B000085F8BC0470BD00FB065004F51F7100244D
:103B1000294480F87D42DEE70220F3E710B5044631
:103B200001F00F0000EBC00311F0800F4FEA830398
:103B30004FF0240216D002FB004203F13C010123A6
:103B4000214482F83D30087094F8BC34012B12D027
:103B50000123206884F8BC3402F054FC002084F86F
:103B6000BC0410BD02FB004203F51F710023214479
:103B700082F87D32E7E70220F3E738B501F00F0560
:103B8000242404FB050104FB050401F51F71C4F89E
:103B900094320023C4F88C22C4F89C3284F87D321D
:103BA00084F87C5203690068012B08BFC4F8902296
:103BB000DAB21DB902F07CFC002038BD02F04AFDEB
:103BC000FAE701F00F01242303FB0100D0F89C0267
:103BD000704738B501F00F05242404FB050104FBF0
:103BE00005043C3163650023E3650123E26484F846
:103BF0003D3084F83C5003690068012B08BF226502
:103C0000DAB21DB902F054FC002038BD02F022FDEA
:103C1000FAE738B5436801F00F059D4204462CD8F9
:103C200011F0800F4FF024001ED000FB054200FB76
:103C3000054101233C3182F83D3001238B700D702A
:103C400094F8BC249A421AD0206884F8BC3402F05C
:103C50000DFE2DB9217C206804F2C44202F0CAFE98
:103C6000002084F8BC0438BD00FB01431A4603F56C
:103C70001F71002382F87D32DFE70120F3E7022085
:103C8000F1E738B5436801F00F029A4204462AD89A
:103C900002EBC20311F0800F4FEA83034FF02400C0
:103CA00018D000FB024003F13C010123214480F8BD
:103CB0003D3000258D700A7094F8BC34012B14D06F
:103CC0000123206884F8BC3402F0FBFD84F8BC5466
:103CD000284638BD00FB024003F51F710023214434
:103CE00080F87D32E5E70120F3E70220F1E701F0FB
:103CF0000F0303EBC3030A064FEA83034CBF03F130
:103D00003C0103F51F710144006802F04DBC000046
:103D10002DE9F04F066889B00446304602F055FEA2
:103D20000390002840F05681206802F01FFE002812
:103D300000F05081D6F808382068C3F30D23C4F88A
:103D4000FC3402F013FE810748BF2268206842BF9E
:103D5000536903F00203536102F008FEC20606F540
:103D600000652CD52268936923F010039361D6F87F
:103D70002080C8F34343022B08F00F0740F02D8149
:103D800047F6F07318EA030F14D0242303FB074708
:103D9000C8F30A19D7F88C124A46304602F046FD9D
:103DA000D7F88C324B44C7F88C32D7F89C324B444E
:103DB000C7F89C322268936943F01003936120682E
:103DC00002F0D4FD030300F11A81206802F0CEFD59
:103DD00047030CD5206802F0D5FD2746049006F570
:103DE000106A4FF00009049B002B40F0D08120683E
:103DF00002F0BCFD002813DA6B6823F001036B604E
:103E000094F8F434012B40F06B82002184F8F41410
:103E1000204600F0E7FA2268536903F0004353613B
:103E2000206802F0A3FD01050AD5AB68DA0702D5C8
:103E3000204606F035FF2268536903F4006353619E
:103E4000206802F093FDC30433D56B68206823F02B
:103E500001036B60102102F081F906F510634FF643
:103E60007F3162680398824200F24282EB6943F03C
:103E70000113EB61236B002B00F05282D5F88430E4
:103E800043F00B03C5F884306B6C43F00B036B6499
:103E9000D6F80038217C206823F4FE63C6F8003889
:103EA00004F2C44202F0A6FD2268536903F4805371
:103EB0005361206802F05AFD870416D5206802F08D
:103EC00088FD206802F054FAE060276800F006FDE3
:103ED000227B0146384602F095F8204606F0CDFEDA
:103EE0002268536903F400535361206802F03EFDD9
:103EF000000707D5204606F0BCFE2268536903F090
:103F000008035361206802F031FD010600F11382BD
:103F1000206802F02BFDC2020CD5A04606F51269FE
:103F200001276368BB4200F21F822268536903F4D1
:103F300080135361206802F019FD83022DD5D4F857
:103F400004E0234606F5326001218E4520D993F81E
:103F5000A4C20268BCF1010F40F01C82002A80F26A
:103F60001982D4F8FC7402F4803207F00107BA42D7
:103F700040F0108283F8A3C2B26942F08002B261BD
:103F80007269170600F106826B6843F400736B6078
:103F90002268536903F400135361206802F0E6FCC1
:103FA000410007D5204606F09FFE2268536903F0C2
:103FB00080435361206802F0D9FC42070AD5236888
:103FC0005D686B0702D5204606F092FE22685368B2
:103FD0002B43536009B0BDE8F08F062B7FF4EAAEA7
:103FE000082204F2C441304602F020FC242303FBE3
:103FF0000747C8F30A18D7F89C324344D8E620682C
:1040000002F0B8FC06F530680490A2460027049B35
:10401000002B3FF4DAAE049BD80776D55FFA87FB16
:104020002068594602F0B6FC10F0010F81461CD002
:10403000206821690123C8F8083000F5306303EBDC
:1040400047130129D0F840C09A6840F08B801107CF
:1040500007D5A5498C4508D9100406D54FF4004270
:1040600002E091065AD520229A6019F0080F21D05B
:104070000823C8F8083023689B481A6C03F530639E
:1040800003EB47138242996804D9090444BF4FF4F3
:10409000004199602046059206F0D4FD924B059AA6
:1040A0009A4207D92169012904D1206804F2C44247
:1040B00002F0A0FC19F0100F1CBF1023C8F8083044
:1040C00019F0020F14D073691B0642BF6B6843F4EA
:1040D00080636B609AF87F32012B06D100238AF847
:1040E0007F325946204606F0F7FD0223C8F8083013
:1040F00019F0200F1CBF2023C8F8083019F4005F06
:104100001CBF4FF40053C8F80830049B5B0801370C
:10411000049308F120080AF1240A78E712F0280F26
:10412000A3D171498C4501D9120497D41A69DAF8E0
:104130009832C2F312029B1ACAF89C326FB9D4F8B3
:1041400094222AB904F2C442012102F053FC04E093
:10415000D4F88C221344C4F88C325946204606F019
:1041600077FD82E761498C4507D111043FF576AFB1
:104170009006F2D520229A60EFE7002FEDD1D4F817
:104180009432002BE9D104F2C4423946DDE7049BA6
:10419000D80740F19C805FFA89FB2068594602F0FD
:1041A00002FC10F0010F804620D001216B6B09F05A
:1041B0000F0201FA02F223EA02036B630B46CAF80C
:1041C0000810216999420DD1D7E912231344FB64E9
:1041D000B9F1000F06D1636D23B9206804F2C4421F
:1041E00002F008FC5946204606F03BFD18F0080F87
:1041F0001CBF0823CAF8083018F0100F1CBF10238A
:10420000CAF8083018F0400F1CBF4023CAF8083025
:1042100018F0020F12D04946304601F09FFF97F880
:104220003F30012B07D14FF0000387F83F3059464C
:10423000204606F055FD0223CAF8083018F0800F1A
:1042400045D0FA6D7B6D9A4241D89B1ABA6C2168B1
:104250000591934228BF134603339B08069301F54B
:10426000106303EB49130793079B06989969FA6D4E
:104270007B6D89B2814228D39A420CD3059B09F009
:104280000F01D3F83428012000FA01F122EA0102DB
:10429000C3F834281BE0A3EB0208BB6C05989845D3
:1042A00028BF984608F103039B080693237C0093DC
:1042B000F96C1FFA88F35A4602F0B8F9FB6C4344D4
:1042C000FB64FB6D4344FB65CEE79A42D6D2049B68
:1042D0005B0809F10109049324370AF1200A82E5F9
:1042E000204606F0F5FC96E50A30544F0A31544F4B
:1042F00099601A6822F400121A60C3F80812D3F801
:10430000002222F40012C3F80022D3F8002242F067
:104310000062C3F80022039A013203922033A0E521
:104320006B6943F4005343F02B036B612B6943F03B
:104330000B032B61ACE5B36923F08003B361012764
:1043400004F27F284FF024096368BB427FF6E0AD9A
:1043500009FB07F318F80330012B03D1F9B220460B
:10436000FFF7C5FC0137EFE798F86430D9F8002073
:10437000012B09D1002A07DA67F07F0188F8633042
:10438000C9B22046FFF7B3FC013708F1240809F150
:104390002009C6E5013124332030D6E5006870B528
:1043A0001204446A19B922438262002070BD836AF4
:1043B0004D1E04EB134400235E1CDBB29D4205D866
:1043C0003F3100EB810022434260EEE7403300EBD7
:1043D00083035B6804EB13443346EDE70368002076
:1043E00059627047704700002DE9F341044640B31D
:1043F0000368DD0710D4236898075ED423681A0782
:1044000000F1A08023685B0700F1C080A06900284C
:1044100040F0288100202BE08F4B9A6802F00C02BC
:10442000042A07D09A6802F00C02082A0BD15A68B5
:10443000510208D5884B1B689A03DCD56368002BB2
:10444000D9D1012014E06268B2F5803F13D11A6817
:1044500042F480321A60FEF77DFC7F4E05463368D9
:104460009B03C8D4FEF776FC401B6428F7D90320D1
:1044700002B0BDE8F081784DB2F5A02F2B6807D1CE
:1044800043F480232B602B6843F480332B60E2E7F6
:1044900023F480332B602B6823F480232B60002AC5
:1044A000D9D1FEF757FC06462B689F03A3D5FEF72C
:1044B00051FC801B6428F7D9D9E7674B9A6812F042
:1044C0000C0F07D09A6802F00C02082A11D15B6821
:1044D0005E020ED4604A13689D0702D5E368012B83
:1044E000AFD11368216923F0F80343EAC1031360D5
:1044F00084E7E268594BB2B101221A60FEF72AFC48
:10450000554D06462B68980707D52B68226923F07E
:10451000F80343EAC2032B6070E7FEF71BFC801B25
:104520000228EFD9A3E71A60FEF714FC4A4E0546AD
:10453000336899077FF562AFFEF70CFC401B022839
:10454000F6D994E76269454B82B10122C3F8802E07
:10455000FEF700FC404E0546736F9F073FF552AFD4
:10456000FEF7F8FB401B0228F6D980E7C3F8802E3F
:10457000FEF7F0FB384E0546736F98077FF542AFA4
:10458000FEF7E8FB401B0228F6D970E7324B1A6CA5
:1045900012F0805228D101921A6C42F080521A64B3
:1045A0001B6C03F080530193019B01272C4D2B685A
:1045B000D9051BD5A368284D012B27D12B6F43F0BC
:1045C00001032B67FEF7C6FB234E054641F28838F0
:1045D000336F9B0739D5002F3FF418AF1E4A136C79
:1045E00023F08053136411E70027DFE72B6843F4BF
:1045F00080732B60FEF7AEFB06462B68DA05D9D434
:10460000FEF7A8FB801B0228F7D930E7052B04D161
:104610002B6F43F004032B67D0E72A6F22F00102CF
:104620002A672A6F22F004022A67002BCAD1FEF7FC
:1046300091FB41F2883806462B6F9807CBD5FEF7E1
:1046400089FB801B4045F7D911E7FEF783FB401B30
:104650004045BDD90BE700BF00380240000047428B
:1046600000700040364DAB6803F00C03082B3DD0C2
:10467000344B002202281A662BD1FEF76BFB06464C
:104680002B6899011FD4D4E907321343626A43EAC5
:104690008213E26A43EA0263A26A5208013A43EAD9
:1046A00002436B60274B264D01221A66FEF752FB30
:1046B00004462B689A013FF5ADAEFEF74BFB001B9D
:1046C0000228F6D9D3E6FEF745FB801B0228D7D98E
:1046D000CDE6FEF73FFB04462B689B017FF59AAEC3
:1046E000FEF738FB001B0228F6D9C0E601283FF48C
:1046F000BFAE6B68E26903F4800191427FF4A1AE22
:10470000216A03F03F028A427FF49BAE616A47F65A
:10471000C0721A40B2EB811F7FF493AEA26A5208B6
:1047200003F44031013AB1EB024F7FF48AAEE26A02
:1047300003F07063B3EB026F3FF46CAE81E600BF31
:104740000038024000004742134908B58B6803F067
:104750000C03042B1CD0082B1CD14A684B684968F9
:1047600013F4800314BF0D480D48C1F3881118BF1E
:10477000002302F03F02A1FB0001FCF785FA064B83
:104780005B68C3F3014301335B00B0FBF3F008BD8A
:104790000248FCE70248FAE70038024000127A00BB
:1047A0000024F4002DE9F0410D46044610B9012023
:1047B000BDE8F081444B1A6802F007028A4228D310
:1047C000226897072DD4D00741D43F4B1A6802F0D6
:1047D0000702AA4266D8226851076CD4130707D58E
:1047E0003A4A2169936823F4604343EAC103936022
:1047F000FFF7AAFF354B364A9B68C3F30313D35C1C
:10480000D840344B1860344B1868FEF773F9002019
:10481000CEE7CAB21A701B6803F007038B42C6D1F9
:10482000CEE72A4B12F0040F1EBF996841F4E05105
:104830009960160742BF996841F460419960234925
:10484000A0688B6823F0F00303438B60BBE76268CA
:104850001E4B012A1CD11B6813F4003FA7D01B4E2E
:10486000B36823F003031343B360FEF773FA41F216
:1048700088380746B368626803F00C03B3EB820F15
:10488000A3D0FEF767FAC01B4045F3D903208FE79A
:10489000911E01291B6802D813F0007FDEE713F098
:1048A000020FDBE7EAB21A701B6803F00703AB42A2
:1048B0007FF47DAF8FE70549E0688B6823F4E05310
:1048C00003438B608AE700BF003C0240003802408F
:1048D00038FE00080000002008000020014B186886
:1048E000704700BF00000020044B054A9B68C3F3DB
:1048F0008223D35C034A1068D840704700380240D6
:1049000048FE000800000020044B054A9B68C3F3E2
:104910004233D35C034A1068D840704700380240E5
:1049200048FE0008000000200F2303600B4B9A682C
:1049300002F0030242609A6802F0F00282609A6814
:1049400002F4E052C2609B68DB0803F4E0530361A9
:10495000034B1B6803F007030B60704700380240ED
:10496000003C02402DE9F3411D46174688460646A5
:10497000FEF7F0F93D442C1AFEF7ECF9224B1B68C8
:10498000C3F3CB330546634332680193936838EA37
:10499000030301D000202DE07B1CF7D0FEF7DAF9ED
:1049A000401BA04229D333685A6822F0E0025A60C3
:1049B0007268B2F5827F0AD1B268B2F5004F02D0B8
:1049C000B2F5806F03D11A6822F040021A60B26A11
:1049D000B2F5005F07D11A6822F400521A601A6813
:1049E00042F400521A60012386F85130002386F801
:1049F0005030032002B0BDE8F081019B002B019BE9
:104A000008BF0024013BBFE70000002038B5134673
:104A10004268B2F5827F04461FD18268B2F5004F2A
:104A200002D0B2F5806F07D125682868B2F5806F93
:104A300020F04000286007D00A4680212046FFF77A
:104A400091FF20B9002038BD0A460121F6E7636DC9
:104A500043F0200363650320F5E70A460121EEE7F2
:104A600037B51346124A1568124AB5FBF2F54FF4F2
:104A70007A72554342680195B2F5827F04460BD1A4
:104A80000A468021FFF76EFF78B1636D43F0200383
:104A90006365032003B030BD019B33B1019B013B33
:104AA000019323689B681B06F6D40020F2E700BF41
:104AB0000000002000366E0110B50446002855D0D5
:104AC000436A002B4ED14268B2F5827F00D0C361A9
:104AD0000023A36294F8513003F0FF0223B984F855
:104AE00050202046FDF704FF2168A068A269022338
:104AF00084F851300B6823F040030B60636800F4C6
:104B0000044003F482730343E06800F4006003434D
:104B1000206900F002000343606900F001000343D4
:104B200002F400700343E06900F038000343206A98
:104B300000F080000343A06A00F4005003430B60C0
:104B4000636A120C03F0100302F004021A434A6075
:104B5000CB6923F40063CB6100200123606584F8F6
:104B6000513010BD0023C0E90433B1E70120F8E75C
:104B70002DE9F3411E4690F85030012B04460D46B6
:104B8000174600F0A180012380F85030FEF7E2F8CC
:104B900094F85130012B8046D8B240F09380002D1C
:104BA0005ED0002F5CD0A2682563032384F85130C7
:104BB000B2F5004F4FF000036365C4E91033E78698
:104BC000A363A387E387A786236807D11A6822F027
:104BD00040021A601A6842F480421A601A68E1685A
:104BE00052065EBF1A6842F040021A60B1F5006FCB
:104BF000626841D10AB1012F07D135F8022BDA6082
:104C00002563E38E013B9BB2E386E38E9BB2A3B99F
:104C1000424631462046FFF723FF00284FD1A368C4
:104C200033B901932368DA6801929B680193019B71
:104C3000606D003818BF012012E022689368980761
:104C400005D5236B33F8021BD1602363D9E7FEF748
:104C500081F8A0EB0800B0420BD3711CD5D0032023
:104C6000012384F85130002384F8503002B0BDE8AD
:104C7000F081002EC9D1F2E70AB1012F08D12A78BC
:104C80001A73236B01332363E38E013B9BB2E386EC
:104C9000E38E9BB2002BBBD023689A68920702D5A3
:104CA000226B1278ECE7FEF755F8A0EB0800B04253
:104CB00002D3731CECD0D2E7002EE9D1CFE720233A
:104CC0006365ACE70220CBE70220CFE72DE9F7438D
:104CD0001E4690F850300A9F012B04460D4691461F
:104CE00000F0E680012380F85030FEF733F894F8A6
:104CF00051306268012B8046D9B20AD0B2F5827F6A
:104D000040F0D480A368002B40F0D080042940F00C
:104D1000CD80002D40D0B9F1000F3DD0002E3BD00A
:104D200094F85130C4F83890042B1CBF052384F844
:104D3000513000236365C4E910332368E687E686B3
:104D40001968A687490658BF1968256358BF41F0FE
:104D50004001A68658BF1960E168B1F5006F52D1D5
:104D60000AB1012E07D135F8022BDA60E38E2563F4
:104D7000013B9BB2E3860125E38E9BB273B9E38FBF
:104D80009BB25BB9424639462046FFF769FE0028D0
:104D900000F081802023636501202BE021688B686F
:104DA0009E070DD5E38E9BB253B14DB1236B33F803
:104DB000022BCA602363E38E013B9BB2E38600258E
:104DC0008A6812F001020CD0E38F9BB24BB1A36B47
:104DD000C96823F8021BA363E38F013B9BB2E387FF
:104DE0001546FDF7B7FFA0EB0800B842C4D3781C06
:104DF000C2D00320012384F85130002384F85030BE
:104E000003B0BDE8F0830AB1012E08D12A781A73E5
:104E1000236B01332363E38E013B9BB2E3860125C1
:104E20002DE02268936899070ED5E38E9BB25BB1A3
:104E300055B1236B1B781373236B01332363E38E0C
:104E4000013B9BB2E38600252268916811F00101C5
:104E50000DD0E38F9BB253B1A36BD2681A70A36BD2
:104E60000133A363E38F013B9BB2E3870D46FDF75C
:104E700071FFA0EB0800B8420AD37B1CB9D1E38EC6
:104E80009BB2002BCDD1E38F9BB2002BC9D179E728
:104E9000002FF4D1ADE7A368002BABD123680190BC
:104EA000DA6801929B680193019BA3E70220A1E7C6
:104EB0000220A5E72DE9F7431D464368B3F5827F3D
:104EC0000446894617460CD1836853B9042380F8F9
:104ED0005130134600950A46FFF7F8FE03B0BDE8CF
:104EE000F08394F85030012B00F08680012384F881
:104EF0005030FDF72FFF94F85130012B8046D8B287
:104F000078D1B9F1000F5CD0002F5AD0A268C4F854
:104F1000389000260423B2F5004F84F85130C4E9DC
:104F2000106666652368E787A7872663A686E686F8
:104F300007D11A6822F040021A601A6822F48042EF
:104F40001A601A6856065EBF1A6842F040021A607C
:104F5000E368F3B1E38F9BB2FBB123689A68D20791
:104F600039D5DA68A36B23F8022BA363E38F013BE7
:104F70009BB2E387EEE723689A68D00718D5A26B47
:104F80001B7B1370A36B0133A363E38F013B9BB2C5
:104F9000E387E38F9BB2002BEDD1424629462046A2
:104FA000FFF734FD18BB606D003818BF012008E022
:104FB000FDF7D0FEA0EB0800A84209D3691CE8D099
:104FC0000320012384F85130002384F8503085E712
:104FD000002DDED1F4E7FDF7BDFEA0EB0800A842EE
:104FE00002D36B1CB6D0EBE7002DB3D1E8E720234A
:104FF0006365D8E70220E4E702206FE790F83D30D0
:10500000012B2CD10223174A80F83D3003689342CC
:105010001AD0B3F1804F17D0A2F57C42934213D03F
:1050200002F5806293420FD002F5806293420BD06A
:1050300002F57842934207D002F57052934203D0B2
:10504000A2F59432934204D19A6802F00702062A2C
:1050500003D01A6842F001021A6000207047012054
:10506000704700BF0000014090F83D30012B30D167
:10507000022380F83D300368DA6842F00102DA600A
:10508000154A93421AD0B3F1804F17D0A2F57C4253
:10509000934213D002F5806293420FD002F58062F2
:1050A00093420BD002F57842934207D002F570523A
:1050B000934203D0A2F59432934204D19A6802F04D
:1050C0000702062A03D01A6842F001021A60002083
:1050D00070470120704700BF0000014070477047D3
:1050E0007047704703681A69910710B504460ED5DA
:1050F000DA6892070BD56FF002021A61012202777B
:105100009B699B0777D0FFF7EAFF0023237723688B
:105110001A69500710D5DA6851070DD56FF00402EF
:105120001A61022222779B6913F4407F204668D0DF
:10513000FFF7D5FF0023237723681A6912070FD5DD
:10514000DA6810070CD56FF008021A610422227782
:10515000DB69990720465AD0FFF7C1FF0023237768
:1051600023681A69D20610D5DA68D0060DD56FF01B
:1051700010021A6108222277DB6913F4407F20466F
:105180004BD0FFF7ACFF0023237723681A69D107C0
:1051900008D5DA68D20705D56FF001021A612046FA
:1051A000FCF758F823681A69100608D5DA68110662
:1051B00005D56FF080021A61204600F0ACF9236833
:1051C0001A69520608D5DA68500605D56FF0400214
:1051D0001A612046FFF785FF23681A69910622D5D8
:1051E000DA6892061FD56FF0200220461A61BDE8EA
:1051F000104000F08FB9FFF771FF2046FFF770FFF6
:1052000083E7FFF76BFF2046FFF76AFF92E7FFF7A0
:1052100065FF2046FFF764FFA0E7FFF75FFF20462A
:10522000FFF75EFFAFE710BD304A0368904212D02F
:10523000B0F1804F0FD0A2F57C4290420BD002F526
:105240008062904207D002F58062904203D002F55E
:105250007842904219D14A6823F070031343234ADD
:10526000904229D0B0F1804F26D0A2F57C429042E6
:1052700022D002F5806290421ED002F580629042F8
:105280001AD002F57842904216D0194A904213D0B3
:1052900002F5806290420FD002F5806290420BD0FE
:1052A000A2F59832904207D002F58062904203D076
:1052B00002F58062904203D1CA6823F4407313431D
:1052C0004A6923F08003134303608B68C3620B6851
:1052D0008362064B984203D003F58063984201D164
:1052E0000B69036301234361704700BF0000014065
:1052F0000040014010B5044630B390F83D3003F053
:10530000FF021BB980F83C20FDF762FB02232068F6
:1053100084F83D30211DFFF787FF012384F84630D4
:10532000002084F83E3084F83F3084F8403084F820
:10533000413084F8423084F8433084F8443084F8B3
:10534000453084F83D3010BD0120FCE710B584687D
:10535000114324F47F4441EA03232343836010BDB7
:1053600070B590F83C30012B04464FF0020300F07A
:105370009180012280F83D3080F83C2000688368ED
:1053800023F47F4323F0770383600B68602B52D0B4
:1053900033D8402B67D016D8202B0DD00AD833F045
:1053A000100109D0012384F83D30002384F83C30FB
:1053B000104670BD302BF5D1826822F07002134385
:1053C00043F0070317E0502BECD14A68CE68016A1E
:1053D000056A25F001050562836921F00A0123F0C1
:1053E000F00343EA06130A4383610262836823F0F1
:1053F000700343F05703836011E0B3F5805F0ED074
:10540000B3F5005F0DD0702BCCD1CB68D1E9012171
:10541000FFF79CFF2268936843F0770393600022B4
:10542000C0E7CB68D1E90121FFF790FF22689368BC
:1054300043F48043F2E74D68CE68016A21F0100121
:1054400001628269036A22F4704223F0A00343EAF6
:10545000051342EA063282610362836823F0700317
:1054600043F06703C7E74A68CE68016A056A25F01A
:1054700001050562836921F00A0123F0F00343EA84
:1054800006130A4383610262836823F0700343F0CA
:105490004703B0E71A468BE730B590F83C30012B54
:1054A0004FF0020332D080F83D3003680D685C682D
:1054B0009A6824F070042C435C60154CA3421AD007
:1054C000B3F1804F17D0A4F57C44A34213D004F568
:1054D0008064A3420FD004F58064A3420BD004F58E
:1054E0007844A34207D004F57054A34203D0A4F536
:1054F0009434A34204D1496822F080020A439A609E
:10550000012380F83D30002380F83C30184630BD40
:105510000000014070477047026802F10C0353E835
:10552000003F23F490730C3242E8003102680029F6
:10553000F2D102F1140353E8003F23F0010302F11A
:10554000140C4CE800310029F3D1036B012B0BD173
:1055500002F10C0353E8003F23F0100302F10C0C9E
:105560004CE800310029F3D1202380F83E3000239D
:10557000036370470268C168136923F440530B4307
:1055800070B51361054683680069D1680343686993
:105590000343E86921F4164121F00C0103430B4356
:1055A000D3605369A96923F440730B4353611F4BC4
:1055B0009A4203D003F580639A4223D1FFF7A4F9FE
:1055C000EB691921B3F5004FD5E90046A0FB0101B5
:1055D0001BD1B2194FF000035B41FBF755FB64216F
:1055E000B0FBF1F501FB1503DB003233B3FBF1F344
:1055F00003F007025B0002EB051203F4F873134497
:10560000A36070BDFFF770F9DAE7B200B30FFBF7E4
:105610003BFB6422B0FBF2F102FB11031B013233AE
:10562000B3FBF2F303EB0113EAE700BF0010014004
:1056300010B5044640B390F83D3003F0FF021BB9AB
:1056400080F83C20FDF7DCF92268242384F83D3003
:10565000D36823F40053D3602046FFF78BFF236801
:105660001A6922F490421A615A6922F02A025A6198
:10567000DA6842F40052DA6000202023206484F8C3
:105680003D3084F83E3010BD0120FCE790F83D30FD
:10569000202B18D1A9B1A2B190F83C30012B12D027
:1056A000C28401628284016800232122036480F89D
:1056B0003C3080F83D20CA6842F08002CA6018463B
:1056C00070470120704702207047000038B504463B
:1056D000134694F83D20202A32D179B373B394F85D
:1056E0003C20012A2CD0012284F83C20606BE3840A
:1056F00000252122256484F83D20124AA3842162DA
:10570000C263114A0264114AC0E9132522680432B7
:10571000FDF7DEFE23686FF040021A60226884F80D
:105720003C5002F1140353E8003F43F0800302F1C0
:10573000140141E800300028F3D138BD0120FCE716
:105740000220FAE7DD5700082B58000837580008F8
:1057500010B50268536990F83D102129044620D104
:1057600019061ED502F1140353E8003F23F080030D
:1057700002F1140040E800310029F3D1606B08B158
:10578000FDF7E0FE226802F10C0353E8003F23F02E
:10579000C0030C3242E800310029F3D1202384F801
:1057A0003D302268536994F83E10222914D15B06DB
:1057B00012D502F1140353E8003F23F0400302F135
:1057C000140040E800310029F3D1A06B08B1FDF7C7
:1057D000B9FE2046FFF7A0FE002010BD08B5034625
:1057E000806B1B681B6813F480731AD1C384026832
:1057F00002F1140353E8003F23F08003143242E81F
:10580000003102680029F2D102F10C0353E8003F95
:1058100043F0400302F10C0040E800310029F3D1CD
:1058200008BDFBF7E9FBFBE7704708B5806BFFF7A6
:10583000FBFF08BD704708B5806B03685A6990F894
:105840003D10212912D1120610D50022C28403F185
:105850000C0252E8002F22F0C00203F10C0C4CE8BD
:1058600000210029F3D1202280F83D205B6990F8C7
:105870003E20222A05D15B0603D50023C385FFF70E
:105880004BFE036C43F010030364FBF725FC08BDDB
:1058900008B5806B0023C385C384FBF71DFC08BDDE
:1058A0007047000010B50446226802F10C0353E86B
:1058B000003F23F490730C3242E800312368002942
:1058C000F2D103F1140252E8002F22F0010203F199
:1058D000140040E800210029F3D1226B012A0BD1EA
:1058E00003F10C0252E8002F22F0100203F10C0029
:1058F00040E800210029F3D15A6912F0400220D07B
:1059000003F1140252E8002F22F0400203F11400C8
:1059100040E800210029F3D1A06B48B10C4B03658E
:10592000FDF754FE10B1A06B036D9847002010BD29
:105930002023E08584F83E3020632046FFF7B0FF47
:10594000F4E72023E28584F83E302263F5E700BFC8
:105950005559000808B5806B00232022C38580F8C4
:105960003E200363FFF79CFF08BD806B08B5036B07
:10597000012B04D1818D4908FBF7DCFB08BDFFF743
:1059800059FFFBE708B50346806B1B681B6813F4DF
:10599000807337D1C385026802F10C0353E8003FDE
:1059A00023F480730C3242E8003103680029F2D1FD
:1059B00003F1140252E8002F22F0010203F1140C4B
:1059C0004CE800210029F3D103F1140252E8002F22
:1059D00022F0400203F1140C4CE800210029F3D11D
:1059E000202280F83E20026B012A0BD103F10C0229
:1059F00052E8002F22F0100203F10C0C4CE80021B9
:105A00000029F3D1036B012B03D1818DFBF792FBAE
:105A100008BDFBF71DFBFBE707B58168836A0268D9
:105A2000B1F5805F3ED1016900293ED15268C2F3D1
:105A3000080223F8022B8362C38D013B9BB2C3850E
:105A4000002B2CD10268D16821F02001D160D168EF
:105A500021F48071D160516921F00101516120224E
:105A600080F83E20026B012A026828D1036302F10C
:105A70000C0353E8003F23F0100302F10C0C4CE838
:105A800000310029F3D11368DB0605D501911368B5
:105A9000019353680193019B818DFBF74BFB03B08E
:105AA0005DF804FB39B9016929B95268D2B21A709C
:105AB000836A0133BFE7526802F07F02F7E7FBF722
:105AC000C7FAECE7036837B51A68D9685D6912F060
:105AD0000F0F04460CD1950670D58D066ED590F843
